:020000040800F2
:10000000004001203D140008A1280008A328000892
:10001000AB280008B3280008BB2800080000000037
:10002000000000000000000000000000C3280008DD
:10003000C528000800000000C7280008C9280008DB
:100040008D1400088D1400088D1400088D1400080C
:100050008D1400088D1400088D1400088D140008FC
:100060008D1400088D1400088D1400088D140008EC
:100070008D1400088D1400088D1400088D140008DC
:100080008D1400088D1400088D1400088D140008CC
:100090008D1400088D1400088D1400088D140008BC
:1000A0008D1400088D1400088D1400088D140008AC
:1000B000D52800088D1400088D1400088D14000840
:1000C0008D1400088D1400088D1400088D1400088C
:1000D0008D1400088D140008F52800088D14000800
:1000E0008D1400088D1400088D1400088D1400086C
:1000F0008D1400088D140008E52800088D140008F0
:100100008D1400088D1400088D1400088D1400084B
:100110008D1400088D1400088D1400088D1400083B
:040120008D14000832
:1001280010B5054C237833B9044B13B10448AFF329
:1001380000800123237010BDD401002000000000BE
:10014800E0D1000808B5034B1BB103490348AFF3DE
:10015800008008BD00000000D8010020E0D10008A0
:1001680081F0004102E000BF83F0004330B54FEA60
:1001780041044FEA430594EA050F08BF90EA020FCD
:100188001FBF54EA000C55EA020C7FEA645C7FEA60
:10019800655C00F0E2804FEA5454D4EB5555B8BF83
:1001A8006D420CDD2C4480EA020281EA030382EAF4
:1001B800000083EA010180EA020281EA0303362D86
:1001C80088BF30BD11F0004F4FEA01314FF4801C59
:1001D8004CEA113102D0404261EB410113F0004F6B
:1001E8004FEA03334CEA133302D0524263EB430322
:1001F80094EA050F00F0A780A4F10104D5F1200EC0
:100208000DDB02FA0EFC22FA05F2801841F100011A
:1002180003FA0EF2801843FA05F359410EE0A5F1EE
:1002280020050EF1200E012A03FA0EFC28BF4CF01F
:10023800020C43FA05F3C01851EBE37101F00045D5
:1002480007D54FF0000EDCF1000C7EEB00006EEBE2
:100258000101B1F5801F1BD3B1F5001F0CD349086C
:100268005FEA30004FEA3C0C04F101044FEA4452C3
:1002780012F5800F80F09A80BCF1004F08BF5FEA4A
:10028800500C50F1000041EB045141EA050130BD2A
:100298005FEA4C0C404141EB0101013C28BFB1F53C
:1002A800801FE9D291F0000F04BF01460020B1FA87
:1002B80081F308BF2033A3F10B03B3F120020CDA5A
:1002C8000C3208DD02F1140CC2F10C0201FA0CF038
:1002D80021FA02F10CE002F11402D8BFC2F1200C9D
:1002E80001FA02F120FA0CFCDCBF41EA0C01904053
:1002F800E41AA2BF01EB0451294330BD6FEA04049C
:100308001F3C1CDA0C340EDC04F11404C4F1200286
:1003180020FA04F001FA02F340EA030021FA04F398
:1003280045EA030130BDC4F10C04C4F1200220FAEF
:1003380002F001FA04F340EA0300294630BD21FA2D
:1003480004F0294630BD94F0000F83F4801306BFF3
:1003580081F480110134013D4EE77FEA645C18BFE7
:100368007FEA655C29D094EA050F08BF90EA020F7E
:1003780005D054EA000C04BF1946104630BD91EA76
:10038800030F1EBF0021002030BD5FEA545C05D179
:100398004000494128BF41F0004130BD14F58004B8
:1003A8003CBF01F5801130BD01F0004545F0FE412C
:1003B80041F470014FF0000030BD7FEA645C1ABF61
:1003C800194610467FEA655C1CBF0B46024650EA98
:1003D800013406BF52EA033591EA030F41F40021C4
:1003E80030BD00BF90F0000F04BF0021704730B54A
:1003F8004FF4806404F132044FF000054FF000011F
:1004080050E700BF90F0000F04BF0021704730B5DF
:100418004FF4806404F1320410F0004548BF4042B4
:100428004FF000013EE700BF42004FEAE2014FEA09
:1004380031014FEA02701FBF12F07F4393F07F4FE4
:1004480081F06051704732F07F4208BF704793F0E7
:100458007F4F04BF41F40021704730B54FF46074FA
:1004680001F0004521F000411CE700BF50EA0102FD
:1004780008BF704730B54FF000050AE050EA0102A6
:1004880008BF704730B511F0004502D5404261EB16
:1004980041014FF4806404F132045FEA915C3FF457
:1004A800D8AE4FF003025FEADC0C18BF03325FEAF4
:1004B800DC0C18BF033202EBDC02C2F1200300FAA5
:1004C80003FC20FA02F001FA03FE40EA0E0021FACA
:1004D80002F11444BDE600BF4FEA410212F50012D2
:1004E80015D211D56FF47873B3EB625212D94FEA73
:1004F800C12343F0004343EA505311F0004F23FA5D
:1005080002F018BF404270474FF00000704750EAB1
:10051800013005D111F0004008BF6FF0004070476E
:100528004FF00000704700BF80F0004002E000BFBD
:1005380081F0004142001FBF5FEA410392EA030FC6
:100548007FEA226C7FEA236C6AD04FEA1262D2EB10
:100558001363C1BFD218414048404140B8BF5B4215
:10056800192B88BF704710F0004F40F4000020F0AE
:100578007F4018BF404211F0004F41F4000121F0C4
:100588007F4118BF494292EA030F3FD0A2F101020E
:1005980041FA03FC10EB0C00C3F1200301FA03F14C
:1005A80000F0004302D5494260EB4000B0F5000F6F
:1005B80013D3B0F1807F06D340084FEA310102F12E
:1005C8000102FE2A51D2B1F1004F40EBC25008BFE0
:1005D80020F0010040EA03007047490040EB0000AA
:1005E800013A28BFB0F5000FEDD2B0FA80FCACF1AB
:1005F800080CB2EB0C0200FA0CF0AABF00EBC250D8
:1006080052421843BCBFD0401843704792F0000FC5
:1006180081F4000106BF80F400000132013BB5E718
:100628004FEA41037FEA226C18BF7FEA236C21D08E
:1006380092EA030F04D092F0000F08BF08467047F3
:1006480090EA010F1CBF0020704712F07F4F04D1C1
:10065800400028BF40F00040704712F100723CBFD4
:1006680000F50000704700F0004343F0FE4040F4FE
:10067800000070477FEA226216BF08467FEA2363BC
:100688000146420206BF5FEA412390EA010F40F4A7
:10069800800070474FF0000304E000BF10F00043F3
:1006A80048BF40425FEA000C08BF704743F09643DA
:1006B80001464FF000001CE050EA010208BF7047F5
:1006C8004FF000030AE000BF50EA010208BF70477C
:1006D80011F0004302D5404261EB41015FEA010C91
:1006E80002BF84460146002043F0B64308BFA3F189
:1006F8008053A3F50003BCFA8CF2083AA3EBC2536B
:1007080010DB01FA02FC634400FA02FCC2F1200289
:10071800BCF1004F20FA02F243EB020008BF20F0C0
:100728000100704702F1200201FA02FCC2F1200226
:1007380050EA4C0021FA02F243EB020008BF20EA1B
:10074800DC7070474FF0FF0C1CEAD0521EBF1CEA49
:10075800D15392EA0C0F93EA0C0F6FD01A4480EA37
:10076800010C400218BF5FEA41211ED04FF0006320
:1007780043EA501043EA5111A0FB01310CF000404C
:10078800B1F5000F3EBF490041EAD3715B0040EA72
:10079800010062F17F02FD2A1DD8B3F1004F40EB42
:1007A800C25008BF20F00100704790F0000F0CF015
:1007B800004C08BF49024CEA502040EA51207F3AD9
:1007C800C2BFD2F1FF0340EAC250704740F40000B4
:1007D8004FF00003013A5DDC12F1190FDCBF00F0A5
:1007E80000407047C2F10002410021FA02F1C2F153
:1007F800200200FA02FC5FEA310040F1000053EAEF
:100808004C0308BF20EADC70704792F0000F00F03C
:10081800004C02BF400010F4000F013AF9D040EA42
:100828000C0093F0000F01F0004C02BF490011F4D6
:10083800000F013BF9D041EA0C018FE70CEAD153D4
:1008480092EA0C0F18BF93EA0C0F0AD030F0004C54
:1008580018BF31F0004CD8D180EA010000F0004008
:10086800704790F0000F17BF90F0004F084691F0C6
:10087800000F91F0004F14D092EA0C0F01D1420200
:100888000FD193EA0C0F03D14B0218BF084608D1C9
:1008980080EA010000F0004040F0FE4040F4000013
:1008A800704740F0FE4040F4400070474FF0FF0CA6
:1008B8001CEAD0521EBF1CEAD15392EA0C0F93EAED
:1008C8000C0F69D0A2EB030280EA010C49024FEA3F
:1008D800402037D04FF0805343EA111143EA1013F8
:1008E8000CF000408B4238BF5B0042F17D024FF4B0
:1008F800000C8B4224BF5B1A40EA0C00B3EB510F8B
:1009080024BFA3EB510340EA5C00B3EB910F24BF73
:10091800A3EB910340EA9C00B3EBD10F24BFA3EBF8
:10092800D10340EADC001B0118BF5FEA1C1CE0D1C0
:10093800FD2A3FF650AF8B4240EBC25008BF20F073
:10094800010070470CF0004C4CEA50207F32C2BFC7
:10095800D2F1FF0340EAC250704740F400004FF064
:100968000003013A37E792F0000F00F0004C02BF95
:10097800400010F4000F013AF9D040EA0C0093F05F
:10098800000F01F0004C02BF490011F4000F013BB9
:10099800F9D041EA0C0195E70CEAD15392EA0C0F21
:1009A80008D142027FF47DAF93EA0C0F7FF470AF59
:1009B800084676E793EA0C0F04D14B023FF44CAF9C
:1009C80008466EE730F0004C18BF31F0004CCAD131
:1009D80030F000427FF45CAF31F000437FF43CAF6D
:1009E8005FE700BF4FF0FF3C06E000BF4FF0010C8F
:1009F80002E000BF4FF0010C4DF804CD4FEA400271
:100A08004FEA41037FEA226C18BF7FEA236C11D0BA
:100A180001B052EA530C18BF90EA010F58BFB2EB6D
:100A2800030088BFC81738BF6FEAE17018BF40F0ED
:100A3800010070477FEA226C02D15FEA402C05D1A1
:100A48007FEA236CE4D15FEA412CE1D05DF8040B26
:100A5800704700BF844608466146FFE70FB5FFF7B9
:100A6800C9FF002848BF10F1000F0FBD4DF808ED71
:100A7800FFF7F4FF0CBF012000205DF808FB00BF62
:100A88004DF808EDFFF7EAFF34BF012000205DF8BC
:100A980008FB00BF4DF808EDFFF7E0FF94BF012009
:100AA80000205DF808FB00BF4DF808EDFFF7D2FF06
:100AB80094BF012000205DF808FB00BF4DF808ED49
:100AC800FFF7C8FF34BF012000205DF808FB00BF16
:100AD8004FEA40024FEA41037FEA226C02D15FEA03
:100AE800402C08D17FEA236C02D15FEA412C02D165
:100AF8004FF0000070474FF0010070474FEA400286
:100B0800B2F1FE4F0FD34FF09E03B3EB12620DD933
:100B18004FEA002343F0004310F0004F23FA02F09D
:100B280018BF404270474FF00000704712F1610F44
:100B380001D1420205D110F0004008BF6FF000401B
:100B480070474FF00000704742000ED2B2F1FE4FDE
:100B58000BD34FF09E03B3EB126209D44FEA002384
:100B680043F0004323FA02F070474FF0000070474B
:100B780012F1610F01D1420202D14FF0FF307047EC
:100B88004FF00000704700BF53B94AB9002908BFA9
:100B980000281CBF4FF0FF314FF0FF3000F086B93E
:100BA800ADF1080C6DE904CE00F006F8DDF804E0BC
:100BB800DDE9022304B070472DE9F047089D0F4690
:100BC80004468E46002B48D18A42164661D9B2FAAD
:100BD80082F24AB1C2F1200301FA02FE20FA03F3BD
:100BE800964043EA0E0E94404FEA164CBEFBFCF1C9
:100BF800B7B20CFB11EE01FB07F0230C43EA0E43DE
:100C0800984209D9F31801F1FF3E80F0ED8098422F
:100C180040F2EA80023933441B1AB3FBFCF00CFBA8
:100C2800103300FB07F7A4B244EA0344A74209D9EA
:100C3800341900F1FF3380F0D980A74240F2D68002
:100C48003444023840EA01400021E41B1DB100236E
:100C5800D440C5E90043BDE8F0878B4206D90DB101
:100C6800C5E9000100210846BDE8F087B3FA83F121
:100C7800002947D1BB4202D3824200F20481841A80
:100C880067EB030201209646002DE4D0C5E9004E2B
:100C9800E1E7002A00F09080B2FA82F2002A40F0E0
:100CA800A780881B0121370C1FFA86FEB0FBF7FCD2
:100CB80007FB1C00230C43EA00430EFB0CF0984290
:100CC80007D9F3180CF1FF3802D2984200F2E080FD
:100CD800C4461B1AB3FBF7F007FB10330EFB00FEEC
:100CE800A4B244EA0344A64507D9341900F1FF33F6
:100CF80002D2A64500F2C9801846A4EB0E0440EAC9
:100D08000C40A3E7C1F120068B4022FA06FC4CEA0E
:100D1800030C27FA06FA4FEA1C49BAFBF9F88F4088
:100D280020FA06F309FB18AA1FFA8CFE3B4300FAC7
:100D380001F708FB0EF01C0C44EA0A44A04202FA30
:100D480001F20BD91CEB040408F1FF3A80F09980FA
:100D5800A04240F29680A8F102086444241A98B28E
:100D6800B4FBF9F309FB134403FB0EFE40EA044409
:100D7800A64508D91CEB040403F1FF307FD2A64531
:100D88007DD9023B644443EA0840A4EB0E04A0FB6F
:100D9800028E74454346F14661D35ED055B1FA1AC6
:100DA80064EB090404FA06F622FA01F31E43CC4068
:100DB800C5E9006400214EE743084FEA510C43EAB5
:100DC800C1710A0C42EA0C428BB2C407B2FBF6F1BD
:100DD80043EA0243BCFBF6FCB646304637461F22C0
:100DE800181A41EA0C4161E7714615E7184629E7E8
:100DF800C2F1200321FA03F0964024FA03F3974046
:100E08003B43370CB0FBF7F807FB18001FFA86FEC8
:100E1800190C41EA004108FB0EF0884204FA02F47A
:100E28003AD9711808F1FF3C01D288421ED8091A34
:100E3800B1FBF7F808FB0EF007FB18119BB243EA69
:100E4800014383422FD2F31808F1FF31C8D28342FD
:100E5800C6D2A8F102013344C2E747459ED2B8EB97
:100E680002036EEB0C0E0138F14697E7301A014485
:100E7800A8F1020CB1FBF7F808FB0EF0DCE703461B
:100E880081E7D0466AE70846FEE63444023834E78C
:100E9800ACF1020C33441CE7091AC446B1FBF7F85D
:100EA80008FB0EF0C8E741469AE700BF704700BF4D
:100EB80010F8012B11F8013B012A28BF9A42F7D0FC
:100EC800D01A7047034613F8012B002AFBD1181AD1
:100ED8000138704770B54FF0FF0C4CF4E06C1CEA19
:100EE80011541DBF1CEA135594EA0C0F95EA0C0F18
:100EF80000F0DEF82C4481EA030621EA4C5123EA8B
:100F08004C5350EA013518BF52EA033541F48011B9
:100F180043F4801338D0A0FB02CE4FF00005E1FB6C
:100F280002E506F00042E0FB03E54FF00006E1FBB6
:100F380003569CF0000F18BF4EF0010EA4F1FF04F9
:100F4800B6F5007F64F5407404D25FEA4E0E6D4139
:100F580046EB060642EAC62141EA55514FEAC5204A
:100F680040EA5E504FEACE2EB4F1FD0C88BFBCF5C6
:100F7800E06F1ED8BEF1004F08BF5FEA500E50F177
:100F8800000041EB045170BD06F0004646EA01013D
:100F980040EA020081EA0301B4EB5C04C2BFD4EB6F
:100FA8000C0541EA045170BD41F480114FF0000E68
:100FB800013C00F3AB8014F1360FDEBF002001F0D6
:100FC800004170BDC4F10004203C35DA0C341BDC50
:100FD80004F11404C4F1200500FA05F320FA04F022
:100FE80001FA05F240EA020001F0004221F0004156
:100FF80010EBD37021FA04F642EB06015EEA430EC9
:1010080008BF20EAD37070BDC4F10C04C4F12005F8
:1010180000FA04F320FA05F001FA04F240EA0200AB
:1010280001F0004110EBD37041F100015EEA430E7C
:1010380008BF20EAD37070BDC4F1200500FA05F29C
:101048004EEA020E20FA04F301FA05F243EA02031B
:1010580021FA04F001F0004121FA04F220EA02002A
:1010680000EBD3705EEA430E08BF20EAD37070BD70
:1010780094F0000F0FD101F00046400041EB010150
:1010880011F4801F08BF013CF7D041EA060195F032
:10109800000F18BF704703F00046520043EB0303EC
:1010A80013F4801F08BF013DF7D043EA06037047D9
:1010B80094EA0C0F0CEA135518BF95EA0C0F0CD0E4
:1010C80050EA410618BF52EA4306D1D181EA03012A
:1010D80001F000414FF0000070BD50EA410606BF24
:1010E8001046194652EA430619D094EA0C0F02D169
:1010F80050EA013613D195EA0C0F05D152EA0336AE
:101108001CBF104619460AD181EA030101F00041CB
:1011180041F0FE4141F470014FF0000070BD41F014
:10112800FE4141F4780170BD70B54FF0FF0C4CF4EE
:10113800E06C1CEA11541DBF1CEA135594EA0C0F0D
:1011480095EA0C0F00F0A7F8A4EB050481EA030E5A
:1011580052EA03354FEA013100F088804FEA033341
:101168004FF0805545EA131343EA12634FEA02220F
:1011780045EA111545EA10654FEA00260EF00041D0
:101188009D4208BF964244F1FD0404F5407402D222
:101198005B084FEA3202B61A65EB03055B084FEAB3
:1011A80032024FF480104FF4002CB6EB020E75EBB0
:1011B800030E22BFB61A754640EA0C005B084FEAD8
:1011C8003202B6EB020E75EB030E22BFB61A754655
:1011D80040EA5C005B084FEA3202B6EB020E75EBA0
:1011E800030E22BFB61A754640EA9C005B084FEA18
:1011F8003202B6EB020E75EB030E22BFB61A754625
:1012080040EADC0055EA060E18D04FEA051545EA13
:1012180016754FEA06164FEAC30343EA52734FEABC
:10122800C2025FEA1C1CC0D111F4801F0BD141EA35
:1012380000014FF000004FF0004CB6E711F4801F9A
:1012480004BF01430020B4F1FD0C88BFBCF5E06F7A
:101258003FF6AFAEB5EB030C04BFB6EB020C5FEA8A
:10126800500C50F1000041EB045170BD0EF0004EDF
:101278004EEA113114EB5C04C2BFD4EB0C0541EA11
:10128800045170BD41F480114FF0000E013C90E60E
:1012980045EA060E8DE60CEA135594EA0C0F08BFD2
:1012A80095EA0C0F3FF43BAF94EA0C0F0AD150EAD1
:1012B80001347FF434AF95EA0C0F7FF425AF104664
:1012C80019462CE795EA0C0F06D152EA03353FF48C
:1012D800FDAE1046194622E750EA410618BF52EA09
:1012E80043067FF4C5AE50EA41047FF40DAF52EADD
:1012F80043057FF4EBAE12E74FF0FF3C06E000BF7A
:101308004FF0010C02E000BF4FF0010C4DF804CD86
:101318004FEA410C7FEA6C5C4FEA430C18BF7FEA46
:101328006C5C1BD001B050EA410C0CBF52EA430C74
:1013380091EA030F02BF90EA020F0020704710F1F4
:10134800000F91EA030F58BF994208BF90422CBF83
:10135800D8176FEAE37040F0010070474FEA410C7C
:101368007FEA6C5C02D150EA013C07D14FEA430C9A
:101378007FEA6C5CD6D152EA033CD3D05DF8040B0B
:10138800704700BF8446104662468C46194663463D
:1013980000E000BF01B5FFF7B7FF002848BF10F114
:1013A800000F01BD4DF808EDFFF7F4FF0CBF012059
:1013B80000205DF808FB00BF4DF808EDFFF7EAFFD5
:1013C80034BF012000205DF808FB00BF4DF808ED90
:1013D800FFF7E0FF94BF012000205DF808FB00BF85
:1013E8004DF808EDFFF7CEFF94BF012000205DF80F
:1013F80008FB00BF4DF808EDFFF7C4FF34BF01201C
:1014080000205DF808FB00BF4FEA410C7FEA6C5CE6
:1014180002D150EA013C0AD14FEA430C7FEA6C5CE6
:1014280002D152EA033C02D14FF0000070474FF05E
:10143800010070470D48854601F060FA0C480D49D7
:101448000D4A002302E0D458C4500433C4188C4217
:10145800F9D30A4A0A4C002301E013600432A2427D
:10146800FBD309F03DFE00F0F3FFFEE7004001204A
:1014780000000020D401002078E10008D4010020F9
:101488001C1E0020FEE700000246D0B1312918D901
:10149800B1F5FA6F15D848000B4BB3FBF0F3012BED
:1014A80010D9EFF3108072B6116211680968013B18
:1014B800CB621168CB6013681B6800225A6200B9BE
:1014C80062B670470223ECE740420F0008B54B1E96
:1014D800DBB2012B00D908BD481E00EBC000114645
:1014E800024B03EB8000FFF7CFFFF4E7601000200A
:1014F80008B505F0E1FC08BD08B505F0DDFC4FF4C2
:101508007A7303FB00F008BD38B505F0D5FC184B1D
:101518001B7853B1174B1B68C01A40F6B733984273
:1015280022D9154B18685D6801E00020054613496B
:10153800FFF708F91149FFF7B9F91149FEF7FAFF62
:10154800FFF702FB04460D492846FFF7FBF80B4955
:10155800FFF7ACF90A49FEF7EDFFFFF7F5FA094B7B
:101568001B685C63986338BD00200546DFE700BF51
:1015780014020020080200200C0200200000C842CB
:101588000080BB443011002038B54B1EDBB2012B64
:1015980014D80C4615460A491046FFF78FFA30B999
:1015A80008492846FFF76CFA10B1064D00E0044DD3
:1015B800013C054B43F82450FFF7A6FF38BD00BF98
:1015C8000000C8420000C8C20C02002070B110B56B
:1015D8000446006848B107F0CFFD00222189606801
:1015E80005F0D7FE00236377A37710BD704700008E
:1015F8004B1EDBB2012B00D970472DE9F0414C1E80
:1016080004EBC406084D05EB8606EFF3108872B6A6
:101618003046FFF7DBFF00237361B361B8F1000FB9
:1016280000D162B6BDE8F0816010002008B50A4616
:10163800064B197019B9064B002119605960202111
:10164800044805F0A6FEFFF75FFF08BD140200205E
:101658000C0200200000024040B310B50446837F0E
:1016680063B1437F73B9426983699A4207D0012203
:101678000189406805F08DFE0123637710BDFFF7EF
:10168800A5FFFBE700220189406805F082FE0023E0
:101698006377227F52B26369134463616269A36905
:1016A8009A42EBD12046FFF791FFE7E77047002801
:1016B80032D070B50D460446EFF3108672B6FFF7C8
:1016C80085FFA561A26963699A421FD0A26963690F
:1016D8009A421EDD01232377227F52B2002AD4BF0B
:1016E80000220122218AE06805F053FE23681B6866
:1016F80000225A6223681B686FF001021A61206891
:1017080007F008FDB0FA80F04009A07706B962B684
:1017180070BD4FF0FF33DEE77047000008B54B1E81
:10172800DBB2012B00D908BD481E00EBC0001146F2
:10173800024B03EB8000FFF7BAFFF4E760100020CC
:1017480008B5084605F0BEFB08BD08B505F0BAFBAC
:1017580008BD10B584B032240294BDF81840019435
:1017680000930123994006F06FFDB0FA80F040091C
:1017780004B010BD10B584B032240294BDF81840EE
:10178800019400930123994006F0AEFCB0FA80F072
:10179800400904B010BD10B582B03224009449004D
:1017A80006F024FBB0FA80F0400902B010BD00003A
:1017B80000B583B01346642200920A4641000448EB
:1017C80006F014FBB0FA80F0400903B000BD00BF7A
:1017D800B011002010B582B032240094490006F000
:1017E8004BFAB0FA80F0400902B010BD00B583B0E2
:1017F8001346642200920A464100044806F03CFA67
:10180800B0FA80F0400903B000BD00BFB01100205D
:1018180008B51E230322490006F092FEB0FA80F0B4
:10182800400908BD2DE9F04740B3884691469A46DD
:1018380006462BB300273D46082405E0FF2D01D0BE
:101848000135EDB20134E4B2772C12D80523012218
:1018580004FA02F1304606F073FE0028F2D1B8F11E
:10186800000FEBD04F45E9D27B1C08F80740DFB2E8
:10187800E4E78AF800702846BDE8F0870025FAE713
:101888000025F8E7F0B589B003AD0024039404946B
:101898000594069407941A4BDA6942F00102DA615A
:1018A800DA6902F001020192019ADA6942F0020251
:1018B800DA61DB6903F002030293029B114F2246AF
:1018C8004FF48461384605F064FD0F4E22463821F6
:1018D800304605F05EFD4FF48463039301230493BF
:1018E8000594022306932946384605F0C5FB38239C
:1018F80003932946304605F0BFFB09B0F0BD00BF91
:1019080000380240000002400004024010B5124CAA
:1019180048220021204609F06CFB104B2360104B35
:1019280063604FF48063238103F1804303F5003340
:10193800E36008222282012121774FF44872226253
:1019480008486062A3622020A08523631023A38631
:1019580084F84010626410BD6010002070110020EF
:1019680000000240F01000202DE9F04387B0164631
:10197800002201920292039204920592002800F03C
:1019880098800D461F468046002900F094800E9BE3
:10199800002B00F0928006F055F9D8F80030484A3C
:1019A800934204D0474A93420BD0002078E0464B3C
:1019B8009A6942F400129A619A6922F400129A61B3
:1019C80008E0414B9A6942F480029A619A6922F4CC
:1019D80080029A613C4BDA6942F00202DA61DB6903
:1019E80003F002030093009B46EA070901224946D7
:1019F800284605F0CEFCCDF804901123029301246B
:101A080003940223049301A9284605F035FB2046D8
:101A180005F058FA002411E000223146284605F066
:101A2800B8FC012005F04EFA01223146284605F09F
:101A3800B0FC012005F046FA0134E4B20F2CEBD9D2
:101A480000223946284605F0A4FC012005F03AFAA0
:101A580001223146284605F09CFC012005F032FAA7
:101A680001223946284605F094FC012005F02AFA9F
:101A78003146284605F086FC04463946284605F0D6
:101A880081FC012C0FD000230E9A1370494628467A
:101A980005F0E6FB404605F0F7FFB0FA80F0400994
:101AA80007B0BDE8F083012801D00023ECE701234B
:101AB800EAE70020F4E70020F2E70020F0E700BFA3
:101AC80000540040005800400038024000B583B080
:101AD800054B00934FF400634FF4806203490448B8
:101AE800FFF742FF03B000BD1702002000040240C8
:101AF800B011002000B583B0054B00934FF400737C
:101B08004FF4807203490448FFF72EFF03B000BD6D
:101B180016020020000402400412002050B110B543
:101B28000446FFF7CFF9962382B22146024807F010
:101B380036FE10BD704700BFA810002008B5024847
:101B4800FFF7ECFF08BD00BF40D200082DE9F041C7
:101B5800C8B000228DF81720474B1B78CBB9474CEB
:101B6800204606F0B3FD064614230222EC21204647
:101B780006F0E6FC88B10DF11703082206A93F48D4
:101B8800FFF750FE074600B300248DF82040254695
:101B980042E03B48FFF7C2FF66E03A4B93F8280063
:101BA80002F098FB0346384A127862B1374A18ACFB
:101BB80001960092364AC021204609F087F920464E
:101BC800FFF7ACFF50E0334AF1E72E4B93F82800BB
:101BD80002F080FB03462C4A127862B12B4A18ACFB
:101BE800019600922C4AC021204609F06FF9204640
:101BF800FFF794FF38E0274AF1E7284B06AA125D61
:101C08000092274A414609F061F9002810DB804517
:101C18000ED905440134E4B29DF81730A34207D920
:101C280008A82844C5F14008002CE6D11D4BE5E77B
:101C38009DF81730BB421AD21B4D124B93F828005F
:101C480002F048FB104B1B789BB1104B18AC039665
:101C580002930190009508AB144AC021204609F070
:101C680035F92046FFF75AFF48B0BDE8F0810D4D21
:101C7800E3E7084BEAE700BF19020020B011002093
:101C8800A0D2000834100020170200207CD20008DF
:101C9800E4D2000888D2000848D3000894D200088B
:101CA800BCD30008E0D4000898D20008C8D30008C4
:101CB80010B596B0124B1B7883B9124B1B785BB1E9
:101CC800114B02AC114A5021204609F0FFF820467A
:101CD800FFF724FF16B010BD0D4BF2E70D4C204660
:101CE80001F0B8FF034694F8212002AC00920A4A9A
:101CF8005021204609F0EAF82046FFF70FFFE9E7F0
:101D080018020020160200207CD200082CD40008FB
:101D180088D20008E80F002058D40008104B93F828
:101D28005831DBB110B58CB004460D4B93F8C83070
:101D380033B90C4B1B68C31A40F2DC52934201D8EA
:101D48000CB010BD30236A460749054802F0E0FE92
:101D58000648FFF7E3FE034B1C60F1E7704700BF3E
:101D6800840E00200402002074D400087CD40008EB
:101D7800B0B338B50546FFF7A5F80446002100E0E2
:101D88000131A14205D26B5C164AD35C13F0080FEF
:101D9800F6D159B90CB3631EEA5C12498A5C12F099
:101DA800080F0AD00022EA541C46F3E7641A621CA2
:101DB8002944284609F004F9ECE7002301E0027001
:101DC80001339C420BD9E818EA5C0649895C01F0AA
:101DD80003010229F3D1203AF1E72346F1E738BDA0
:101DE800704700BFF9DD000810B588B00446264BDF
:101DF8001B78F3B9254B1B68C31A40F6B7329342D8
:101E080001D808B010BD214B1860FFF773FE0028F9
:101E1800F7D01F48014601F053FE1B4B18700028ED
:101E2800EFD01C4B1C601C4B00221A60FFF740FFD0
:101E3800E7E701A9164801F0B1FEF0B9144B93F891
:101E4800223073B1134B1B68E31A40F6AC5293422D
:101E5800D7D9114B1B6823B1E31A40F2DC529342E5
:101E6800CFD90B4801F078FE074B00221A70074BB8
:101E78001C600A48FFF752FEC3E7074B1C6001A924
:101E8800074802F01FFEBCE718020020F8010020F6
:101E9800E80F002000020020FC010020A4D4000864
:101EA800840E002070B588B0314B1B78002B3AD1D6
:101EB800304B1B68C31A40F6B732934201D808B0BA
:101EC80070BD2C4B1860FFF701FE0028F7D02A4C94
:101ED800256A666A294A01AB07CA83E807001946DA
:101EE800204601F04DFF224B187025492846FEF781
:101EF800DBFD20B123492846FEF7CCFD70B93146F9
:101F08001D4802F0D1F91A4B1B78002BD7D01E4B75
:101F180000221A701D48FFF701FED0E72946204627
:101F280002F0ACF9EBE71A4B1B68C31A632BC6D94E
:101F3800174B186004A9104801F0CAFF80B9124A6B
:101F480013780133DBB21370022BB8D90023084A87
:101F58001370094A82F829300E48FFF7DFFDAEE713
:101F6800094B00221A7004A90B4802F0C1FDA6E72C
:101F780019020020F401002034100020F8D10008D4
:101F880000806D440080894415020020B8D4000800
:101F9800F0010020E4D40008840E002010B5ADF54F
:101FA8001C7D164A5369926B154991F8F410E1B1FA
:101FB8000121134890F8F500C8B1012084AC0290C3
:101FC800019100920F4A6021204608F07FFF2046C9
:101FD800FFF7A4FD4FF4007204A9094803F032FA90
:101FE800002806DC0DF51C7D10BD0021E1E700206E
:101FF800E4E704A8FFF792FDF4E700BF60100020B3
:10200800840E0020F8D400082E4B1B782E4A127834
:102018009A4256D030B5B9B0EFF3108572B6294C54
:10202800217801EB41016022284B03EB411120A8E4
:1020380009F093F82378013303F01F03237005B9DF
:1020480062B600238DF8DF3020A8FFF791FE9DF8D7
:1020580080300BB939B030BD04F02EFF1C4B18602E
:102068001C4920A8FEF724FFE8B11B4920A8FEF769
:102078001FFF0028EED0194920A8FEF719FFC8B1A4
:10208800174920A8FEF714FFC0B180236A460DEB5C
:102098000301144802F03CFD6846FFF73FFD124873
:1020A800FFF73CFDD6E7FFF749FDFFF74FFDFFF7C8
:1020B800FFFDCFE70D48FFF731FDCBE7FFF76EFFD8
:1020C800C8E770471A0200201B02002020020020E7
:1020D8000402002018D5000820D5000828D50008DB
:1020E800B0D50008840E0020F4D4000830D50008CC
:1020F80008B50368B3F1804F03D0064A934204D071
:1021080008BD0548FFF7A8FAFAE70448FFF7A4FA5C
:10211800F6E700BF000C004060100020841000208B
:1021280038B50268244B9A4200D038BD234B1B783F
:102138000D2B0FD00A2B0DD0214A128892B25E2A9D
:1021480036D81F48028892B2511C89B201801D49B5
:102158008B5415E01A4B1B889BB28BB11A4B1C7819
:10216800013404F01F04164B1B889BB2154A00214A
:10217800D154164B1B78A34208D1114B00221A8068
:1021880001220E49124807F060FDCEE70E4D28786F
:1021980000EB40000A4B1A8892B2013209490D4BF4
:1021A80003EB401008F0D9FFBFF35F8F2C70E4E712
:1021B800034B00221A80E3E700440040800E002011
:1021C8001C020020200E00201B0200201A02002002
:1021D800A81000202002002008B50268044B9A428B
:1021E80000D008BD01220349034807F02EFDF8E797
:1021F80000440040800E0020A810002072B60D4B4D
:1022080040F2DC525A639A634FF08042136823F01D
:102218000103136002F54062136823F001031360A1
:10222800054B4FF080629A614FF4001203498A61AE
:102238009A61FEE7000400400000024000040240EA
:1022480000B595B03422002107A808F0D2FE00237B
:10225800029303930493059306931E4B5A6A42F024
:1022680080525A625B6A03F080530193019B1A4AB9
:10227800136823F4C05343F400631360164B5B6880
:1022880013F0100FFAD10223079301220A921022A9
:102298000B921093002311934FF4002312934FF4E1
:1022A8000003139307A806F05BFA70B90F23029393
:1022B800032303930023049305930693012102A8A3
:1022C80006F038FD18B915B000BDFFF797FFFFF706
:1022D80095FF00BF003802400070004008B501605B
:1022E8001F224260002282604FF41C71C1600261AB
:1022F800426106F0EAFE00B908BDFFF77FFF000063
:1023080008B54FF080410248FFF7E8FF08BD00BF5D
:102318007011002008B502490248FFF7DFFF08BD29
:10232800000C0040F010002000B587B00023049393
:10233800059300930193029303931A481A4A026083
:102348001F224260836044F61F62C26003614361DA
:1023580006F026FFF8B900230493059304A9114851
:1023680007F0A8F8C8B96023009340F2DC53019342
:1023780000220292039269460A4806F095FF70B956
:1023880004226946074806F08FFF40B9054800F067
:102398005BFA07B000BDFFF731FFFFF72FFFFFF72C
:1023A8002DFF00BF301100200004004008B50A4886
:1023B8000A4B03604FF4E133436000238360C3603A
:1023C80003610C2242618361C36107F0B8F900B967
:1023D80008BDFFF713FF00BFA8100020004400400D
:1023E80008B50A480A4B03600A4B43600023836020
:1023F800C3604FF48042026143618361C361036239
:1024080005F042FB00B908BDFFF7F8FE04120020F2
:1024180000540040A086010008B50B480B4B036030
:1024280042F21073436000238360C3604FF480421C
:10243800026143618361C361036205F025FB00B952
:1024480008BDFFF7DBFE00BFB011002000580040B8
:102458002DE9F04192B0574C94E8070012AB03E91C
:10246800070007AD04F10C060FCE0FC596E80F0064
:1024780085E80F006D462C340FCC0FC594E8070093
:1024880085E8070004F0F2FCFFF7DAFEFFF7FAF937
:10249800FFF736FFFFF748FFFFF73CFFFFF786FF20
:1024A800FFF79EFFFFF7B8FFFFF730FA42480368CF
:1024B80040F2DC525A639A63002106F095FE20B977
:1024C80004213D4806F090FE08B1FFF797FE04F09E
:1024D800F3FC3A4B1860FFF7F9FA50B90022384B71
:1024E8001A70384A6946384802F0A4FA50B9FFF71A
:1024F80085FE0FA9334801F043FC08B10122EEE73D
:102508000022ECE7FFF7F6FA90B900222F4B1A7079
:1025180004F0D2FC2E4B186004F0CEFC2D4B186052
:1025280001222D492D4807F090FB50B1FFF766FEB8
:1025380007A92B4801F0C4FA08B10122E6E70022F6
:10254800E4E7FFF7FBFAFFF701FBFFF7B1FB04F045
:10255800B3FC804604F0B0FC074604F0ADFC04462A
:10256800204D6969AA6B184E304602F0A5FAFFF7AC
:102578004BFD2046FFF738FC2046FFF793FC6969BE
:10258800AA6B304602F098FAA4EB0803132B0BD879
:102598002046FFF7C3FBFEF7B7FFE31BF92BDCD997
:1025A800FFF7FCFC2746D8E7304602F05FFEA0465E
:1025B800EEE700BFF8D10008301100200802002023
:1025C8001902002034100020840E00201802002078
:1025D8000002002004020020800E0020A810002025
:1025E800E80F00206010002010B582B004468DF876
:1025F8000700642301220DF10701034807F0CFF813
:10260800204602B010BD00BFA810002000B583B05E
:102618000B4B1A6A42F001021A621A6A02F00102AE
:102628000092009A5A6A42F080525A625B6A03F03A
:1026380080530193019B032004F08AFC03B000BD82
:102648000038024000B589B0002303930493059332
:1026580006930793204BDA6942F00202DA61DB69DC
:1026680003F002030093009B1223049301230593B4
:10267800022306930368194A934204D0184A9342E6
:1026880015D009B000BD144B5A6A42F400125A62C0
:102698005B6A03F400130193019B4FF440730393A7
:1026A8000423079303A90F4804F0E6FCE9E70A4B63
:1026B8005A6A42F480025A625B6A03F48003029306
:1026C800029B4FF4406303930423079303A905482F
:1026D80004F0D2FCD5E700BF0038024000540040A7
:1026E800005800400004024008B503680F4A9342AE
:1026F80003D00F4A93420CD008BD02F5F232536A58
:1027080023F4001353624FF440710A4804F0A8FD03
:10271800F2E702F5F032536A23F4800353624FF470
:102728004061044804F09CFDE6E700BF0054004007
:10273800005800400004024000B589B0002303930C
:1027480004930593069307930268174B9A4201D0A6
:1027580009B000BD03F5FA33DA6942F00102DA6123
:10276800DA6902F001020192019A5A6A42F40032CF
:102778005A625B6A03F400330293029B0C230393AF
:10278800022304930122059206930723079303A9C2
:10279800064804F071FC00220621262004F0EAFB1A
:1027A800262004F0F7FBD3E7004400400000024075
:1027B80000B583B00368B3F1804F04D0154A934243
:1027C80015D003B000BD03F50E335A6A42F001027A
:1027D8005A625B6A03F001030093009B0022042104
:1027E8001C2004F0C7FB1C2004F0D4FBE9E70A4BCB
:1027F8005A6A42F008025A625B6A03F008030193BE
:10280800019B002204212E2004F0B4FB2E2004F0AA
:10281800C1FBD6E7000C0040003802400268094BB3
:102828009A4200D0704782B003F50D335A6A42F0DD
:1028380002025A625B6A03F002030193019B02B031
:10284800704700BF0004004000B587B00023019323
:10285800029303930493059302680D4B9A4201D0A7
:1028680007B000BD03F50D33DA6942F00102DA6101
:10287800DB6903F001030093009BC023019302234B
:1028880002930493059301A9024804F0F5FBE7E7D6
:102898000004004000000240704708B5FFF7AEFC96
:1028A80008BD08B5FFF7AAFC08BD08B5FFF7A6FCE8
:1028B80008BD08B5FFF7A2FC08BD70477047704710
:1028C80008B504F0EDFA04F088FB08BD08B5024825
:1028D80006F05CFD08BD00BF7011002008B5024875
:1028E80006F054FD08BD00BFF010002008B50248EE
:1028F80007F042F808BD00BFA8100020704701206B
:10290800704708B508F0E6FB162303604FF0FF3068
:1029180008BD08B54FF0FF31FFF7F3FFFEE770B5CC
:102928000C461646002506E0AFF30080214601F864
:10293800010B01350C46B542F6DB304670BD70B56B
:102948000C461646002504E014F8010BFFF74CFE70
:102958000135B542F8DB304670BD4FF0FF307047A7
:102968004FF400534B60002070470120704700204F
:102978007047000010B503460C4A0D490D48006821
:1029880040B10C4800680344521A934206D8094AD9
:10299800136010BD0748084C0460F2E708F09AFB82
:1029A8000C2303604FF0FF30F3E700BF0040012025
:1029B8000004000058120020201E002070B50446B4
:1029C8000E461546FEF75CF830B929462046FEF754
:1029D80075F818B9204670BD3046FCE72846FAE776
:1029E80010B5044604E00C492046FDF7A1FD044655
:1029F80009492046FEF758F80028F4D104E00649B2
:102A08002046FDF797FD044600212046FEF738F8DA
:102A18000028F4D1204610BD0000B44338B50D4657
:102A2800FFF7DEFF04462846FFF7DAFF0146204697
:102A3800FDF77EFD044604E00C492046FDF778FDCD
:102A480004460B492046FEF739F80028F4D104E083
:102A580006492046FDF76EFD044606492046FEF766
:102A68000FF80028F4D1204638BD00BF0000B44359
:102A780000003443000034C3002800F0B08038B5AB
:102A880004460378012B01D9002038BD4568002190
:102A98002846FEF709F8002800F0A3806C4928466C
:102AA800FDF7F8FF002800F09E80A5680021284661
:102AB800FDF7FAFF002800F0988065492846FDF7E1
:102AC800E9FF002800F09380E56800212846FDF71B
:102AD800EBFF002800F08D805D492846FDF7DAFFFE
:102AE800002800F088802369B3F5FA7FC0F085805C
:102AF800584A934200F2838062694EF660239A42F4
:102B08007FD8A369B3F57A7F7DD3524A93427CD8A4
:102B1800626E43F697239A4279D9E56C00212846DC
:102B2800FDF7CCFF002874D049492846FDF7B2FFCD
:102B3800002870D0256D00212846FDF7BFFF00282A
:102B48006BD043492846FDF7A5FF002867D0656D7F
:102B580000212846FDF7B2FF002862D03C492846EC
:102B6800FDF798FF00285ED0A56D3B492846FDF784
:102B78009BFF002859D039492846FDF78BFF0028CC
:102B880055D00021206CFDF799FF002851D0002175
:102B9800606CFDF793FF00284DD00021A06CFDF775
:102BA8008DFF002849D00021E06DFDF787FF002840
:102BB80045D0D4F88030002B43D0256E28492846CC
:102BC800FDF754FF28B94FF07E512846FDF74EFF18
:102BD800C8B394F88430022B37D9002055E7002079
:102BE8007047002051E700204FE700204DE7002004
:102BF8004BE7002049E7002047E7002045E7002091
:102C080043E7002041E700203FE700203DE70020A0
:102C18003BE7002039E7002037E7002035E70020B0
:102C280033E7002031E700202FE700202DE70020C0
:102C38002BE7002029E7002027E7002025E70020D0
:102C480023E7002021E700201FE701201DE700BF40
:102C58000000C842C0D401000000344200003443E0
:102C6800000080BF80F88810C0F88C200023C0F8CE
:102C78009030704708B580F88910002180F8A810B6
:102C88000F21FFF7EFFF08BD61B1D0F8901009B927
:102C9800C0F89020D0F89010521A9A4234BF002001
:102CA800012070470023C0F89030084670470000A4
:102CB800F8B5044608461546064F074E3A463146CB
:102CC800FFF77CFE20603A4631462846FFF776FE3D
:102CD8006060F8BD0000C8420000C8C22DE9F0419C
:102CE800044616461D46C968D0F89800FFF796FEB8
:102CF8000146676C07F10048206CFDF723FD3A4652
:102D08004146FFF75BFE044601462846FDF710FCE6
:102D1800074629462046FDF70DFC01463A4630464F
:102D2800FFF7C6FFBDE8F0812DE9F04104461646DD
:102D3800C968D0F89800FFF771FE0746656C05F181
:102D480000480146206CFDF7FDFC2A464146FFF786
:102D580035FE054627F00040E16DFDF7AFFE60B196
:102D680025F00040A46C2146FDF78AFE28B1002119
:102D78003846FDF799FE40B1254605F1004229463F
:102D88003046FFF795FFBDE8F08104F10045F4E710
:102D98002DE9F04383B004460F4616461D4690F8C9
:102DA8008430012B47D0022B47D00021A06BFDF7C0
:102DB800C9FCD4F83C8008F10049216EFDF7C2FC3B
:102DC80042464946FFF7FAFD0446DFF87C904FF08B
:102DD80000082946FDF7AEFB4A464146FFF7EEFDDF
:102DE800009021462846FDF7A3FB4A464146FFF7D7
:102DF800E5FD01900024012C21D802AB03EB8403EC
:102E080053F8085C04F1080357F82300FDF746FC63
:102E180001462846FDF796FC0B49FDF747FD4FF0A4
:102E28007C51FDF787FBFDF769FEA31C46F82300DC
:102E38000134E4B2DFE70969B8E74969B6E7012375
:102E4800737403B0BDE8F0830000C84208B50846B3
:102E580000230B7401224A748B60CB6000210A4660
:102E6800FFF726FF08BD000000284BD010B5044628
:102E78008822002108F0BDF8234B6360234AA26032
:102E8800234AE26041F28832226140F6B83161613A
:102E9800A261204A62624FF07F52A2621E4AE26239
:102EA8001E4A22631E4A62634FF07C52A2631D4A87
:102EB800E2631D4921646364A264E3642365626577
:102EC8001A4BA3651A4BE3654FF07E5323664FF404
:102ED8007A5363664FF4FA63A3664FF44873E36664
:102EE8004AF6C873236744F62063636742F2107397
:102EF800A3674EF66023E367C4F88030012384F8A3
:102F0800843010BD704700BF0000F0410000A041B0
:102F1800000070419A99993E0AD7A33C0AD7A33D6D
:102F28000000E04100004041CDCC4C3F0000B442DD
:102F380000004040D8B130B5A3B00C460546AC22DD
:102F4800002108F056F86846FFF78EFF4CB188223A
:102F58002146284608F001F9002385F8883023B077
:102F680030BD88226946284608F0F7F8F4E770472C
:102F780070B570B30C46064641B3FFF77DFD28B324
:102F880094F82B5045B3236A002B1ADD626A002A95
:102F980017DD94F82810A1B194F829508DB1A169D2
:102FA8001D4880FB03C0DB17C3EB6013994208DCA4
:102FB800E169194B83FB0203D217C2EB63129142FA
:102FC8000EDD042386F88930002503E0012386F806
:102FD80089300025284670BD032386F88930F9E733
:102FE8007368C6F8A430E068FFF7FAFCC6F89800E2
:102FF800C6F89C000023C6F8A030002386F8893064
:10300800012386F8A8302268C6F8942002213046A9
:10301800FFF728FEDEE700BF1F85EB5140B108B57A
:103028000A46002180F8A8100E21FFF71BFE08BDF4
:1030380070470000002800F0DA812DE9F0470D46BE
:1030480014460646002975D0002A73D00023136061
:1030580053609360D36013610A68D0F88C30D71A34
:10306800C0F8942090F888300F2B11D8DFE803F0CF
:1030780062081010101010101010101010620B0BB6
:103088000123A37456E021462846FFF7DFFE51E0EE
:1030980095F82B1000293DD0296A002942DD686A7D
:1030A80000283FDD95F828C0BCF1000F3AD095F80C
:1030B80029C0BCF1000F35D00C2B3DD00123A374DF
:1030C800237496F888300B2B78D8052B68D2032BFD
:1030D8007ED0042B00F09980022B6FD173682246B2
:1030E80029463046FFF754FE00210A462046FFF7DE
:1030F800DFFD3369BB421DD8E868FFF771FCC6F8ED
:103108009800B368C6F8A4302A6803213046FFF750
:10311800A9FD0FE00321FFF7ADFD21462846FFF783
:1031280095FE07E004213046FFF7A4FD2146284616
:10313800FFF78CFEBDE8F087AA69AD4B83FB013C25
:10314800CB17C3EB6C139A420BDCEA69A84981FBE5
:103158000031C317C3EB61139A4215DD4FF0000825
:1031680001E04FF0000821462846FFF76FFEB8F14E
:10317800000F0CD1D6F88030BB42DBD82A68092171
:103188003046FFF777FDD5E74FF00108EBE700235E
:1031980086F8A8302A680D213046FFF763FDC9E795
:1031A800012202FA03F313F42A6F47D113F4886F4C
:1031B80040F0868013F4807F40F0C3802A680121A4
:1031C8003046FFF757FD21462846FFF73FFEB1E797
:1031D800B368224629463046FFF7DAFD00210A4641
:1031E8002046FFF765FD7369BB42A3D8E868FFF77F
:1031F800F7FBC6F8980033782BB904212A683046C3
:10320800FFF730FD96E70521F8E7B368224629461F
:103218003046FFF7BDFDF368224629463046FFF7E2
:103228005DFDB369BB4285D82A680C213046FFF79B
:1032380019FD21462846FFF709FE7BE7B3682246B9
:1032480029463046FFF7A4FDF36C2246294630464E
:10325800FFF744FD736EBB423FF66CAF96F888707B
:10326800052F0DD0092F0BD0072F1BD02A680C2152
:103278003046FFF7F7FC21462846FFF7E7FD59E7F8
:10328800B16DE868FDF756F9FFF7AAFBC6F8980094
:10329800052F05D00A212A683046FFF7E3FC49E7E5
:1032A8000621F8E7E868FFF79BFBC6F89C000023B7
:1032B800C6F8A0302A6808213046FFF7D3FC39E762
:1032C800B368224629463046FFF762FD2246294662
:1032D8003046FFF729FDE968D6F89800FFF79EFB0E
:1032E80020F000404FF00108F16DFDF7D3FB08B95D
:1032F8004FF00008F36E2A6808F001013046FFF726
:10330800C3FC68B9736FBB423FF614AF2A68062145
:103318003046FFF7AFFC21462846FFF797FD09E73F
:10332800E868FFF75DFBC6F8980096F88830062B2A
:1033380005D00B212A683046FFF794FCFAE60721EE
:10334800F8E7D6F89C10E868FFF768FB8046B36892
:10335800224629463046FFF71BFDE868FFF740FB89
:10336800C6F89C0000214046FDF7A8FB58B121494A
:103378004046FDF785FB30B14146D6F8A000FDF781
:10338800D9F8C6F8A000D6F85090D6F854A05146FF
:103398004846FDF7CDF8804651464846FDF7CAF83D
:1033A800014642462046FFF783FC1349D6F8A000A1
:1033B800FDF77AFB10B1B36FBB420DD9F36FBB4277
:1033C8003FF6B8AE2A6807213046FFF753FC21467E
:1033D8002846FFF73BFDADE6E868FFF701FBC6F8B6
:1033E80098002A6809213046FFF73CFCA2E670479E
:1033F8001F85EB51000034420000B4430F2803D866
:10340800024B53F8200070470148704754DD00080C
:10341800B8D50008092803D8024B53F82000704794
:10342800014870472CDD0008B8D5000888B142680B
:103438008AB182688AB1C2688AB102698AB142696E
:103448008AB182698AB1C3690BB101207047002033
:103458007047002070470020704700207047002008
:10346800704700207047002070470020704788424E
:1034780028BF0846704710B584B08DF80F2004693E
:10348800012300930DF10F030A4690F821100068FC
:10349800A04704B010BD10B582B01346446901229C
:1034A80000920A4690F821100068A04702B010BDAB
:1034B80070B582B004460D4600238DF80730436886
:1034C80000689847064610B9304602B070BD84F8C7
:1034D80021500DF1070200212046FFF7DCFF0646C8
:1034E8000028F1D09DF80730A02B01D00026EBE78B
:1034F80000223D212046FFF7BEFF06460028E3D004
:10350800A369192120689847002207212046FFF760
:10351800B2FF08B90026D7E700223F212046FFF76F
:10352800AAFF0028F6D0A3690A212068984700223C
:103538003E212046FFF79FFF06460028C4D0A36916
:103548000A212068984700223B212046FFF793FF75
:1035580006460028B8D0A3690A21206898470C229B
:103568003D212046FFF787FF06460028ACD0A36917
:103578001E2120689847012384F8203084F82230DF
:10358800E36920689847A0F543405038A0629BE75C
:1035980038B5144B1B680BB30024042C1BD8114BF3
:1035A800186885680523104A90F821100068A84714
:1035B80040B90C4B1B689A691E2118689047013462
:1035C800E4B2EAE7074B1B689A694FF496711868EA
:1035D8009047002001E04FF0FF3038BD4FF0FF303A
:1035E800FBE700BF7012002094DD00087047000060
:1035F80038B5114B186878B1144681B192B1B2F55B
:10360800803F12D2856893B20A4690F8211000686C
:10361800A84768B1204638BD4FF0FF30FBE74FF0B0
:10362800FF30F8E74FF0FF30F5E74FF0FF30F2E7F3
:103638004FF0FF30EFE700BF7012002008B5044BD1
:103648001B681BB1DA691868904708BD0020FCE7C1
:103658007012002010B504464FF07E51FDF72EFA87
:1036680030B906492046FDF70BFA20B9204601E09B
:103678004FF07E5010BD0148FCE700BF000080BF3E
:1036880028B121B10A6812B9012280F824207047B4
:103698002DE9F04186B005460C4600238DF80F3021
:1036A80046690623009304AB1A2290F8211000689B
:1036B800B047064618B9304606B0BDE8F0810DF1AE
:1036C8000F0235212846FFF7E6FE9DF810009DF809
:1036D8001120120212B29DF812709DF813301B02CD
:1036E8001BB21F439DF814809DF815301B021BB2B6
:1036F80048EA0308002323606360A360E360236152
:103708006361A3611043FCF7C9FF4FF07651FDF7E1
:1037180019F820603846FCF7C1FF4FF07651FDF7E5
:1037280011F8A0604046FCF7B9FF4FF07651FDF75D
:1037380009F860609DF80F30637695F82C30237691
:10374800EB6A0133EB62B6E72DE9F04F83B00C4624
:10375800066847688568D0F80CA051463046FCF7E3
:10376800F1FF804629463846FCF7ECFF0146404603
:10377800FCF7E0FE0146FCF7DDFE019031463046DD
:10378800FCF7E0FF814639463846FCF7DBFF804608
:1037980001464846FCF7CEFE0146FCF7CBFE014643
:1037A8004FF07E50FCF7C4FE814651463846FCF780
:1037B800C9FF834629463046FCF7C4FF01465846F0
:1037C800FCF7B6FE0146FCF7B5FEFFF743FF83465C
:1037D80051462846FCF7B6FF824639463046FCF784
:1037E800B1FF01465046FCF7A5FE0146FCF7A2FED4
:1037F800064629462846FCF7A5FF01464046FCF741
:1038080099FE0146FCF796FE01464FF07E50FCF704
:103818008FFE05464946019806F04AFA1049FCF71A
:1038280091FFA060584606F023FA0D49FCF78AFF7D
:1038380060602946304606F03BFA0949FCF782FFEA
:10384800054620600021FDF71BF910B903B0BDE85B
:10385800F08F04492846FCF76DFE2060F6E700BFAC
:10386800E12E65420000B443B0B370B58CB00C468D
:10387800054669B130220021684607F0BAFB2146A7
:10388800684602F006FE18B99DF80030052B01D0F5
:103898000CB070BD00232B636B63AB63EB632B64CD
:1038A8006B64AB6405F1300105A8FFF74DFF9DF887
:1038B800013085F848309DF8023003F0030303EB2C
:1038C800830303EB031385F84930012385F823307C
:1038D800EB6A0133EB62DBE7704700002DE9F04348
:1038E8008BB00D4635490868002855D016461C4649
:1038F800002D53D0032A53D9C768042309AA90F886
:1039080021100068B847074600284DD02CB12B4B32
:103918001B68DA691868904720609DF824009DF8B4
:10392800253040EA0320C0F30E08B8F1030F3DD953
:10393800B0453DD846461EE0311D89B22020FFF72C
:1039480096FD04461D4B1868D0F80C90234601AA32
:1039580090F821100068C84760B3AFB9042C2BD980
:10396800043CA4B2224602A9284607F0F6FB2544E7
:10397800341BA6B200276EB1002FDDD031462020BF
:10398800FFF775FD0446DDE7224601A9284607F042
:10399800E4FBECE7404604E0002002E0002000E001
:1039A80000200BB0BDE8F0830020FAE70020F8E71C
:1039B8000020F6E70020F4E70020F2E7701200206C
:1039C80000B587B001A9002301934B608B60CB60E1
:1039D8000B6144F620630393052002F055F9B0FA11
:1039E80080F0400907B000BD70B596B004460E4699
:1039F800436800689847054610B9284616B070BD58
:103A080084F82160022384F82030244B1C60244869
:103A18000023036043608360C3600361214B03603C
:103A2800214B4360214B8360214BC360214B0361D1
:103A38002246214902F068F818B10025174B1D608D
:103A4800DBE701AD54220021284607F0D2FA2846C8
:103A580002F008F910B99DF854302BB902F0E2F8D9
:103A680000250E4B1D60C8E72146144802F0F0F807
:103A78000028F3D1FFF7A4FF05460028EED0012364
:103A880084F82230002384F82430E36920689847BA
:103A9800A0F59C500838A062AFE700BF7012002064
:103AA8005C12002099350008F5350008E538000853
:103AB800F9350008453600088936000871380008CD
:103AC80070B588B0002845D00C4605460846FFF773
:103AD800ADFC064610B9304608B070BDEE46A446A7
:103AE800BCE80F00AEE80F009CE80F008EE80F005E
:103AF8004C220021284607F07CFA2C46EC46BCE80C
:103B08000F000FC49CE80F0084E80F004A212846E4
:103B1800FFF76AFF0028DED14B212846FFF764FF34
:103B28000028D8D1002385F8203085F821302821B5
:103B38002846FFF7BDFC0028CDD129212846FFF7EC
:103B4800B7FC0028C7D1002385F8203085F821303C
:103B58000646C0E70026BEE7E8B110B5044690F86F
:103B68002030022B09D0002384F8223084F820303A
:103B780084F8213084F8233010BD074B1B6883423A
:103B8800F1D190F82230002BEDD002F04BF8024B27
:103B980000221A60E7E770477012002070B500280D
:103BA8004FD00D46064600294ED090F82240002CF2
:103BB80048D0C3690068984796F82030012B07D091
:103BC800022B43D1224B1B68B34210D0002439E0AA
:103BD800B36AC31A4CF24F32934201D8002431E041
:103BE800B06229463046FFF753FD04462AE0B36A1F
:103BF800C31A41F28732934210D896F823400CB387
:103C0800AC4606F130050FCDACE80F0095E807008B
:103C18008CE80700002386F8233013E0B06202F036
:103C28000FF896F82430002BE7D0002386F82430CC
:103C3800FFF7C6FE04460028DFD13046FFF78CFFA9
:103C480000E00024204670BD0024FBE70024F9E7CB
:103C58007012002038B190F82030022B05D0012BCB
:103C680005D0044870470348704703487047034825
:103C7800704700BFC0D50008FCD6000808D7000868
:103C880000B583B08DF80710036801220DF1070114
:103C98007620984703B000BD30B583B0044615467A
:103CA800FFF7EEFF00B3A3681420984700212046D1
:103CB800FFF7E6FF0346F0B16368032201A9762007
:103CC80098470346D8B19DF804209DF805100902CD
:103CD80041EA02419DF806201143296041B90B23AE
:103CE80084F82830002303E00346082284F82820BB
:103CF800184603B030BD092284F82820F8E70A22C4
:103D080084F82820F4E784B00346EC460068596834
:103D18009A68DB68ACE80F00BDF80030C3F30B030A
:103D2800ADF800300020ADF80E00024617E002F0B2
:103D3800FE0310336B4433F8103C1B0A1AE04000B2
:103D480080B20133DBB2072B07D810F4004FF6D04E
:103D5800400080B280F44050F3E70132D2B20F2A1B
:103D68000BD812F0010FE2D002F0FE0310336B44BF
:103D780013F8103C58400023E5E7000B04B07047E7
:103D8800F0B583B0002800F095800D4604462C223B
:103D9800002107F02EF9012384F82830002D00F0C7
:103DA8008D802B68002B00F08B806B68002B00F057
:103DB8008980AB68002B00F0878095E8070084E8CD
:103DC8000700424B23621E212046FFF759FF064693
:103DD80020B1A3680A209847002514E0032384F83B
:103DE800283068E0042284F82820064663E09DF81D
:103DF80004309DF8052042EA03222B1D04EB4303FF
:103E08009A800135EDB2062D16D805F15001C9B2D8
:103E1800490001F0FE012046FFF732FF0028E1D0FB
:103E28006368022201A9762098470028DFD105227D
:103E380084F8282006463EE035463246012310E045
:103E480000225DB1191D04EB410188884FF6FF710E
:103E5800884212D0002502E00122F2E70025013352
:103E6800DBB2062B0BD8002AEAD01A1D04EB42025B
:103E78009288002AF0D00022E3E70125EFE702B993
:103E880025B1062384F82830002614E0204630F8AF
:103E98000C7F3F0BFFF737FFB84204D0072384F8A5
:103EA80028302E4607E0002384F82830012384F8C0
:103EB800293000E00026304603B0F0BD0026FAE7BE
:103EC8000026F8E70026F6E70026F4E700407944E4
:103ED8002DE9F04F89B0002800F081810C46054695
:103EE80049B190F829605EB9022380F8283030463D
:103EF80009B0BDE8F08F012380F828300026F6E7E6
:103F080007AA4A21FFF7C8FE08B90026EFE706AA64
:103F18005A212846FFF7C0FE05900028F5D0069ADA
:103F2800EB8A1B02D21A61EB0101E889C0036E8A91
:103F3800A6FB023706FB01773E46002FC0F2A88099
:103F48001B0A43EA06633612C318009346F10003BE
:103F58000193B5F810E04FEA0E4EA88AA0FB02368E
:103F680000FB01663046002EC0F29680DB0943EA6A
:103F78004063C0111EEB030E40F1000302932F8B28
:103F8800A7FB023607FB01663746002EC0F2888081
:103F9800DB0D4FEAE75943EA472313F5FA6649F17F
:103FA8000007B6F5FA6F77F1000C80F2878002FB04
:103FB80001F1A2FB02C202EB41021CEB0C0142EB35
:103FC800020811EB0C0142EB08084246B8F1000F59
:103FD8006BDB51100391D217049203FB09F2A3FB88
:103FE800038A0AEB420A18EB080C4AEB0A011CEB9D
:103FF800080C4AEB0101CA0F12EB0C0241F1000157
:104008005208481042EAC17201464FEA8A0B4BEA4D
:10401800987B4FEA880C1CEB080C4AEB0B0BD84634
:10402800BBF1000F45DB4FEADC0C4FEAE80B4CEA2A
:10403800487CD846DFF8ACA156454FF0FF3A77EBFD
:104048000A0A58DA40F6AC5813EB080849F1000997
:1040580008FB09F9A8FB083808EB49084FEAC8012A
:1040680041EA53714FEAC309B9EB030961EB08014F
:1040780019EB02094A4640EB01014FEA880848EA71
:1040880093789B0013EB0C039C4648EB0B0832E03B
:10409800FF3347F1000653E77F3346F1000065E739
:1040A800514FDB1946F1000772E7013948F1010267
:1040B8008FE71CF1070C4BF10008B4E702FB01F194
:1040C800A2FB02C202EB41021146002A6ADB0A1176
:1040D8000392CA17049203FB09F9A3FB032303EB1A
:1040E80049031946002B62DB120942EA01720911E1
:1040F8004FF0000CE046039BF61A049B67EB03079E
:10410800BEEB0202029B63EB0101009BB3EB0C03C5
:10411800019860EB0800DDF81CE0AEFB033C0EFBE9
:1041280000CC6046BCF1000F45DB5B0D43EAC023C1
:1041380040159B1A60EB01021146002A40DB5B0B1D
:1041480043EAC1404913FCF7BFFA2849FCF7AEFB24
:10415800206030463946FCF7B7FA2549FCF7A6FB3C
:104168006060002385F8283095F82A6076B3E969FD
:104178002068FCF7DDF91E49FCF7E4FA07461D49FB
:10418800286AFCF7DFFA01463846FCF78FFBA06087
:104198000021FCF775FCF8B9696AA068FCF7CAF950
:1041A800E060A4E61CF1FF3C42F10F018FE70F32FB
:1041B80043F1000198E710481B184CF10000B4E7E0
:1041C80041F6FF715B1842F10001B8E70023A360D4
:1041D8006B6AE360059E8AE60023A360DCE700269D
:1041E80085E600BF24FAFFFFFFFF7F0000002041A3
:1041F8000000C8420AE81C41FFFF1F002DE9F041FA
:1042080084B0002836D00E46074690F82980B8F1C9
:10421800000F05D003290AD9202909D9202607E04B
:10422800022380F82830404604B0BDE8F081042617
:10423800002487F82A40002506E000992846FCF764
:1042480079F905460134E4B2A64207D969463846E9
:10425800FFF73EFE0028F0D18046E4E73046FCF741
:1042680019FA01462846FCF721FBF861012387F873
:104278002A30D8E74FF00008D5E7000070B138B50C
:104288000C46054606492046FCF70EFC28B10549B0
:104298002046FCF7FFFB00B12C6238BD704700BF19
:1042A80000806D440080894480B138B50C460546CD
:1042B80007492046FCF7F8FB28B14FF07E5120460D
:1042C800FCF7E8FB00B938BD6C62FCE7704700BF3B
:1042D800000080BF0B281DD8DFE800F0061E080A82
:1042E8000C0E10121416181A0C4870470C48704718
:1042F8000C4870470C4870470C4870470C4870478A
:104308000C4870470C4870470C4870470C48704779
:104318000C4870470C4870470C487047C0D50008D7
:1043280028D7000838D7000844D7000854D7000811
:1043380060D7000870D700087CD7000890D700081D
:10434800A4D70008B0D70008B8D5000814D70008CB
:1043580010B5044604E00C492046FCF7E9F8044689
:1043680009492046FCF7A0FB0028F4D104E00649DF
:104378002046FCF7DFF8044600212046FCF780FBC6
:104388000028F4D1204610BD0000B44338B50D46CE
:10439800FFF7DEFF04462846FFF7DAFF014620460E
:1043A800FCF7C6F8044604E00C492046FCF7C0F8C0
:1043B80004460B492046FCF781FB0028F4D104E0B1
:1043C80006492046FCF7B6F8044606492046FCF79D
:1043D80057FB0028F4D1204638BD00BF0000B44385
:1043E80000003443000034C308B590F858318B42BC
:1043F80004D080F8581103690068984708BD38B59B
:104408000446836800252A46012100689847A36866
:104418002A46022120689847C4F85051C4F85451DC
:10442800002184F8581123692068984738BD70B571
:1044380082B0054600910192002401E00134E4B203
:10444800012C1ED802AB03EB840353F8086C04F16B
:10445800540355F823103046FCF76AF820F0004062
:104468004FF07C51FCF720FB0028E7D0AB68611CBB
:104478003246C9B22868984704F1540345F82360C6
:10448800DCE702B070BD70B505460E46002401E0B9
:104498000134E4B2012C17D856F8242004F1520351
:1044A80055F82330D31A002BB8BF5B42012BEFDD40
:1044B800EB68611CC9B22868984756F8242004F1B3
:1044C800520345F82320E3E770BD00002DE9F041D1
:1044D8001E4690F85951F5B904468846174690F893
:1044E800C830C3B990F85A51ADB9C36BE3B112B92A
:1044F80090F85B31F3B9D4F8EC30002B21DDD4F817
:10450800F01000291DDD94F84070002F58D0A369E1
:1045180003B3002538E03C4A0699304606F0D6FC3D
:1045280000252846BDE8F081384A0699304606F04D
:10453800CDFCF6E7364A0699304606F0C7FC3D46FC
:10454800EFE7042384F8A930324A0699304606F08A
:10455800BDFCE6E7304A0699304606F0B7FCE0E7CE
:10456800A3696F1CFFB239462068984705F13803E4
:1045780004EB830300225A606319012183F8F410C5
:10458800523544F825203D46012DE9D92046FFF74C
:1045980036FF002384F85C31012584F85B5184F8E8
:1045A8005A5184F8C83084F8A93084F8A850C4F85F
:1045B800AC80E36B194A0699304606F087FCB0E7F1
:1045C80094F8F420B2B194F8F5209AB1D4F8E42024
:1045D800134880FB0350DB17C3EB60139A4209DCD6
:1045E800D4F8E8300E4A82FB0102C917C1EB621108
:1045F8008B42CBDD042384F8A9300A4A0699304659
:1046080006F064FC3D468CE7BCD70008CCD7000810
:10461800E0D70008FCD7000818D800084CD80008D4
:104628001F85EB5134D80008A0B130B583B00C46D3
:10463800054689B10A2201A905F018FF2060019BEF
:10464800AB4203D01B781BB1002006E0002004E039
:10465800012002E000207047002003B030BD0000B8
:1046680070B506460C4615469D492046FCF720FCC9
:1046780018B9C6F8EC50012070BD9A492046FCF7DD
:1046880017FC18B9C6F8F0500120F5E796492046FE
:10469800FCF70EFC98B195492046FCF709FCD0B10F
:1046A80093492046FCF704FCF0B92846FBF7F6FFCF
:1046B8009049FCF7FBF8C6F840010120DCE72846E2
:1046C800FBF7ECFF8C49FCF7F1F80146F069FFF7BE
:1046D800EBFD0120D0E72846FBF7E0FF0146F06933
:1046E800FFF7CCFD0120C7E784492046FCF7E0FB33
:1046F80020B9B5F1FF3F0ED0012D0CD080492046DE
:10470800FCF7D6FB70B9002D0CDB022D0ADC86F80D
:10471800A4500120B0E72846FBF7C0FFC6F84401C3
:104728000120A9E777492046FCF7C2FB20B9B5F17B
:10473800FF3F14D0012D12D073492046FCF7B8FB77
:10474800A0B9002D12DBB5F5FA7F0FDC2846FBF780
:10475800A5FF6849FCF7AAF8B06501208CE7284650
:10476800FBF79CFFC6F88000012085E767492046D3
:10477800FCF79EFB48B9002D07DB282D05DC2846F1
:10478800FBF78CFFF065012076E761492046FCF7CE
:104798008FFB18B9002D01DB012D0EDD5D49204688
:1047A800FCF786FB68B9002D0BDB642D09DC284675
:1047B800FBF774FF706201205EE786F82050012045
:1047C8005AE755492046FCF773FB48B9002D07DB2B
:1047D800642D05DC2846FBF761FFB06201204BE73A
:1047E8004E492046FCF764FB40B9B5F5FA7F05DB76
:1047F8004B4B9D4202DC356301203DE74949204689
:10480800FCF756FB40B9002D06DB4EF660239D42AF
:1048180002DC756301202FE743492046FCF748FB7B
:1048280040B9B5F57A7F05DB3D4B9D4202DCB563A7
:10483800012021E73D492046FCF73AFB48B9002D05
:1048480007DB642D05DC2846FBF728FFF062012012
:1048580012E737492046FCF72BFB38B9002D05DB5A
:10486800344B9D4202DCF563012005E732492046BE
:10487800FCF71EFB08B9012D0DD930492046FCF77D
:1048880017FB80B92846FBF709FF1B49FCF70EF810
:1048980070640120F0E6012D14BF0025012586F87B
:1048A80040500120E8E626492046FCF701FB40B9C4
:1048B8002846FBF7F3FE1049FBF7F8FFB064012028
:1048C800DAE620492046FCF7F3FA00283CD12846CE
:1048D800FBF7E4FE0849FBF7E9FFF0640120CBE6AB
:1048E80064D8000870D800087CD8000888D8000868
:1048F80090D800080000C84200007A44A4D80008F4
:10490800B4D80008C4D80008D4D80008E4D80008EF
:10491800F4D80008FCD8000810D9000824D90008E9
:10492800C0D401002CD900083CD900084CD9000893
:1049380060D90008005C260570D9000884D90008F1
:1049480080D9000890D9000833492046FCF7B0FA0E
:1049580038B943F697239D4203DDC6F884500120F9
:104968008AE62E492046FCF7A3FA48B9002D07DD50
:10497800642D05DC2846FBF791FEF06601207BE6F6
:1049880027492046FCF794FA48B9002D07DD642D25
:1049980005DC2846FBF782FE306701206CE62149DA
:1049A8002046FCF785FA48B9002D07DD642D05DCA3
:1049B8002846FBF773FE706701205DE61A4920461A
:1049C800FCF776FA68B9042D0BDDB5F5FA7F08DC3B
:1049D8002846FBF763FE1549FBF768FF30660120A0
:1049E8004AE613492046FCF763FA70B9632D0EDDD9
:1049F80044F620639D420CDC2846FBF74FFE0B492A
:104A0800FBF754FF7065012036E6002034E60020ED
:104A180032E6002030E600BFA0D90008ACD9000873
:104A2800B8D90008CCD90008DCD900080000C84271
:104A3800ECD9000880B370B5A2B00C4616460546FE
:104A480061B36AB34B686BB38B686BB3CB686BB3FA
:104A58000B696BB34FF4B272002106F0CAFAAC4688
:104A68000FCCACE80F0094E807008CE80700EE6173
:104A78004FF07E53C5F844310E4BC5F84831C5F8A0
:104A88004C316846FEF7F0F9694605F12000FEF75B
:104A980051FA012022B070BD002070470020F9E7CC
:104AA8000020F7E70020F5E70020F3E70020F1E712
:104AB8000020EFE7C0BDF0FF18B1C0F8E410C0F85F
:104AC800E820704798B110B5044679B100F58E7E9C
:104AD8008C46BCE80F00AEE80F009CE807008EE8A3
:104AE8000700636820689847C4F83C0110BD704708
:104AF80068B110B5044649B100F5867C0FC98CE849
:104B08000F00636820689847C4F8380110BD7047E3
:104B18002DE9F0439FB0002800F0898317461D4611
:104B28000646002900F08583002A00F0848323B913
:104B3800002420461FB0BDE8F0830AAC0B469C4A0F
:104B48005021204606F0C2F97368306898478046BD
:104B580098492046FCF7ACF9E0B197490AA8FCF758
:104B6800A7F9002847D095490AA8FCF7A1F9002819
:104B780070D196F8593133B996F8C8301BB996F800
:104B88005A31002B5BD08E4A2946384606F09EF9EA
:104B98000024CEE7002486F85A4186F8C84086F8F3
:104BA800A84086F8A940C6F8AC8086F85C41012385
:104BB80086F859313046FFF722FC13E0F36804F118
:104BC80001095FFA89F904F1380806EB8808D8F872
:104BD8000420494630689847D8F80430523446F8DB
:104BE80024304C46012CE9D9764A2946384606F045
:104BF8006DF901249DE796F85A3143B1002386F8F0
:104C08005A3186F8A83086F8A930C6F8AC8096F8EC
:104C1800C83073B9002386F85C3186F859313046BC
:104C2800FFF7EDFB684A2946384606F04FF901249C
:104C38007FE7414606F12000FEF7F0F9EAE7012197
:104C48003046FFF7D1FB614A2946384606F03EF95F
:104C580001246EE703225E490AA806F0DFF930B1A5
:104C680003225C490AA806F0D9F9002842D109A90B
:104C78000DF12B00FFF7D8FC00283BD0D6F85031B7
:104C88000593D6F8543106939DF82930313B5FFAE5
:104C980083F896F8584174B196F859315BB996F88B
:104CA800C83043B996F85A312BB9099810F1C80F92
:104CB80001DBC82806DD484A2946384606F006F9C9
:104CC800002436E7FBF7EAFC4FF07C51FBF73AFD8E
:104CD8001EAB03EB880343F8640C069A059930462B
:104CE800FFF7A5FB08F101033C4A2946384606F0C0
:104CF800EDF81EE703223A490AA806F08FF930B109
:104D0800032238490AA806F089F9002876D109A9AA
:104D18000DF12B00FFF788FC814600286ED09DF826
:104D28002930313B5FFA83F896F859315BBB96F826
:104D3800C83043BB96F85A412CBB099B2A4A934278
:104D480021DB2A4A93421EDCD6F8E4200792D6F8E3
:104D5800E82008921EAA02EB880252F85C1C0B4459
:104D680042F85C3C08F13A0206EB82025268002ADB
:104D780010DD002B01DB93420CDD1D4A2946384625
:104D880006F0A4F8D5E61B4A2946384606F09EF8F0
:104D98000024CEE607A93046FFF775FB08F10103AA
:104DA800154A2946384606F091F84C46C1E600BF38
:104DB80020DC000820DA000874D4000840DA000873
:104DC80044DA000828DA000834DA000854DA00085F
:104DD80060DA000864DA000868DA000878DA00089F
:104DE80080DA000884DA0008C0BDF0FF40420F00F6
:104DF80094DA000888DA0008A4DA00080322954942
:104E08000AA806F00BF928B1032293490AA806F06C
:104E180005F998BB09A90DF12B00FFF705FC04461D
:104E280060B39DF82930A3F131085FFA88F8D6F805
:104E38001490B9F1000F0ED0099A312A0BDDB2F5A2
:104E4800FA6F08DC96F8591129B996F8C81011B903
:104E580096F85A1131B1814A2946384606F036F893
:104E6800002466E6303BD9B23068C84708F1010330
:104E78007B4A2946384606F029F85AE679490AA8AD
:104E8800FCF716F820B178490AA8FCF711F890BB8E
:104E98009DF82C30A3F131025FFA82F8B26942B171
:104EA80096F8591129B996F8C81011B996F85A11F7
:104EB80031B16E4A2946384606F008F8002438E62B
:104EC800303BD9B23068904708F1380306EB8303CA
:104ED80000225A6006EB0803012483F8F44008F125
:104EE800520346F8232008EB0403614A2946384652
:104EF80005F0ECFF1DE65F490AA8FBF7D9FFE0B112
:104F08005D490AA8FBF7D4FF00283DD1B6F858310F
:104F180063B996F8C8304BB996F85A3133B9D6F810
:104F280038311BB1F06990F8293003BB534A294640
:104F3800384605F0CBFF0024FBE5D6F8E430D6F878
:104F4800E80096F8F42072B1012296F8F51061B1E4
:104F58000121029101920090494A2946384605F0FC
:104F6800B5FF0124E5E50022EFE70021F1E708217C
:104F7800FFF744F9044628B1424A2946384605F065
:104F8800A5FFD6E5404AF8E740490AA8FBF790FF95
:104F980040BBB6F858316BB996F8C83053B996F893
:104FA8005A313BB9D6F83C3123B1A8EB0303B3F52A
:104FB800167F06D9364A2946384605F087FF002469
:104FC800B7E5D6F81C0100F10040D6F84411FBF70C
:104FD800B9FBC6F840012F4A2946384605F076FF46
:104FE8000124A6E52C490AA8FBF762FF00285BD13B
:104FF800D6F8583123F07F4323F0FF0313B996F80E
:10500800C83033B1254A2946384605F05FFF0024E9
:105018008FE5314641F8CC8F06F12000FDF7A8FF57
:10502800044650B996F8A900FEF7F4F903461C4A5D
:105038002946384605F04AFF7BE5012186F85B11D1
:105048003046FFF7D1F9174A2946384605F03EFFA2
:105058006FE500BFACDA0008B0DA0008B4DA00087F
:10506800C4DA0008CCDA0008D4DA0008DCDA000870
:10507800E8DA0008F4DA000814DA000818DB000897
:10508800F8DA000800DA000810DA000830DB000857
:105098003CDB000850DB00085CDB000868DB00082C
:1050A80078DB000884DB000864490AA8FBF700FFE6
:1050B800002841D062490AA8FBF7FAFE002844D02C
:1050C80060490AA8FBF7F4FE002847D005225E498C
:1050D8000AA805F0A3FF002854D004225B490AA8B7
:1050E80005F09CFF002840F0868096F8C830002B19
:1050F80040F0888096F85A41002C40F083802021A7
:105108000BA805F07EFF002800F08380002300F83C
:10511800013B09A9FFF788FA38B1099A0BA930466B
:10512800FFF79EFA0646002879D10BAB484A294674
:10513800384605F0CBFEFCE400953B46002241468C
:105148003046FFF7C3F90446F3E400953B460122D5
:1051580041463046FFF7BAF90446EAE4002486F8E7
:105168005A41414606F12000FDF758FF86F85C4198
:105178003046FFF744F9374A2946384605F0A6FE77
:105188000124D6E409A90DF12D00FFF74DFA0028F6
:10519800A3D0DDF8248018F1B40F9EDBB8F1B40F6A
:1051A8009BDCB8F1000F98D096F85841002C94D0A9
:1051B80096F8C830002B90D196F85A31002B8CD134
:1051C80096F85931002B88D1D6F8D8904046FBF78D
:1051D80065FA01464846FBF7ADF9FFF7B9F8C6F896
:1051E8006001012386F85C3143461B4A294638464C
:1051F80005F06CFE9DE4194A2946384605F066FE1E
:10520800002496E4164A2946384605F05FFE002435
:105218008FE4144A2946384605F058FE89E40BAB5A
:10522800114A2946384605F051FE344681E40024E7
:105238007FE400247DE400247BE400BF94DB0008C5
:10524800A4DB0008B4DB0008D0DB0008E4DB0008BE
:1052580018DC0008C0DB0008D8DB0008ECDB00081D
:10526800F8DB000810DC000824DC0008002800F047
:10527800E380F8B504464368006898470546C4F8D3
:10528800CC00D4F81831C4F8D030D4F81431C4F8AC
:10529800D430D4F84411D4F81C01FBF753FAD4F8ED
:1052A8004011FBF747F9FFF753F8C4F8D800D4F8D2
:1052B8002431C4F8DC30D4F82031C4F8E030D4F814
:1052C80038314BB1EB1AB3F5167F11D8E36993F86F
:1052D8002A3013B1012300E0002384F8F630D4F813
:1052E8003C313BB1EB1AB3F5167F37D9002302E006
:1052F8000023F2E7002384F8F73094F859317BBB98
:1053080094F85A3183BB94F8C830002B4DD194F8E7
:10531800A8300E2B49D00F2B47D00C2B45D094F832
:105328005C31002B58D0D4F8D810D4F86001FFF7BE
:105338002DF8054694F8F7303BB120F000404FF0C7
:105348008041FBF7A7FB00284DD0002384F85C318F
:1053580000210A462046FFF76AF83DE00123CAE724
:105368002046FFF74CF837E0D4F8AC60AE1B204677
:10537800FFF745F8E36BB3422ED8002384F85A317F
:1053880004F1CC0104F12000FDF7F2FD40B900233F
:1053980084F8C8300F2384F8A830C4F8AC50B2E7BA
:1053A80001212046FFF720F8ADE704F1F80204F1E7
:1053B800CC0104F12000FDF73DFE94F808112046C9
:1053C800FFF712F8D4F8FC20D4F8F8102046FFF7BD
:1053D8002EF894F8093103B9F8BD04F58071204618
:1053E800FFF751F8F8E72946206EFBF7ABF90646B8
:1053F80020F00040A76E3946FBF742FB28B1002198
:105408002846FBF75BFB60B13E460C493046FBF78C
:1054180055FB48B90A493046FBF732FB28B1084E1C
:1054280003E007F10046F0E7044E06F1004231467A
:105438002046FEF7FCFFCFE7704700BF0000F041B1
:105448000000F0C1002800F0C5802DE9F04F91B0B0
:105458000D4617460446002900F0BF80002A00F0D8
:10546800BF804368006898478246D4F8AC30A0EB08
:10547800030894F8C83033B994F85A31002B74D023
:105488004FF0010901E04FF0010900232B70D4F817
:105498003C612EB1AAEB0606B6F5167F68D9002640
:1054A800D4F83831002B3DD0AAEB030ABAF5167FA1
:1054B80038D805EB060BA7EB060AD4F81801FAF75B
:1054C800B3FFCDE90A01D4F81001FAF7ADFFCDE931
:1054D8000C01D4F80C01FAF7A7FFCDE90E01D4F8B6
:1054E8001401FAF7A1FFE36993F82A30002B63D07F
:1054F80001230893CDE90601DDE90E23CDE9042354
:10550800DDE90C23CDE90223DDE90A23CDE90023F7
:10551800394A5146584605F0D9FC002866DB8245D1
:105528004CD9064405EB060BA7EB060A94F859314B
:10553800002B45D0314D94F8A900FDF76BFFB9F168
:10554800000F43D0012302930190CDF800802B4631
:105558002B4A5146584605F0B9FC002849DB8245DC
:1055680036D9304411B0BDE8F08F4FF000098CE710
:10557800D4F8D860D4F8DCB094F835310693D4F870
:10558800E000FAF751FFCDE904015846FAF74CFF5D
:10559800CDE902013046FAF747FFCDE90001194A83
:1055A8003946284605F092FC00281CDB0646B8421E
:1055B800FFF476AF781ED5E700239AE7781ED1E787
:1055C80094F8A800FDF71AFF0546B4E70023BAE7E8
:1055D800781EC7E74FF0FF3070474FF0FF30C1E744
:1055E8004FF0FF30BEE74FF0FF30BBE74FF0FF3022
:1055F800B8E74FF0FF30B5E758DC000830DC0008AA
:1056080084DC000838DC0008D0F8A03073B910B585
:105618000446C0F8A010C0F8A4304B68984720B1E1
:10562800C4F8A4000023C4F8A03010BD6FF0020035
:10563800704708B5D0F8A03013B19B6803B19847FC
:1056480008BD00002DE9F84304461AB10F469046FC
:1056580000251AE0D0F8F4310133C0F8F431BDE880
:10566800F8830C3304EB430393F80690B9F1000F69
:105678001ED0F12901D0FC2920D04A4631462046C7
:10568800FFF7D7FFA9441FFA89F54545E7D27E19E8
:10569800795D00233F2B08DC03F10C0204EB420286
:1056A80052798A42DDD00133F4E74FF00009DDE793
:1056B800D4F8F8310133C4F8F831D0E7D4F8BC2075
:1056C800002ADAD0124902230B6073780B71B37881
:1056D800C3F340030B72B37803F001034B72B37842
:1056E800C3F380038B72B378C3F3C003CB72B6F8ED
:1056F80003308B81D6F805300B61D6F809304B6141
:10570800D6F80D308B61D4F8C0009047B5E700BFDC
:105718007C1200200346C0F8A4100020C3F8A000A3
:105728007047002300E001333F2B0BDC03F10C0230
:1057380000EB420252798A42F5D10C3300EB430068
:10574800807970470020704710B4094B1B6883426A
:1057580003D9084C236801332360054B18600A44B9
:10576800642303FB0200034B196810BC704700BF99
:1057780078120020741200207047000008B5012A32
:1057880005D0D0F8F0310133C0F8F03108BD0B78FE
:10579800012B05D0D0F8F0310133C0F8F031F5E72E
:1057A8000372064B00221A60D0F8BC30002BEDD0F3
:1057B8000249D0F8C0009847E8E700BF7C120020F3
:1057C8000B78F82B3FD110B5D0F8A82032B390F859
:1057D800AC3090F8ADC0634520D291F801C01C01EF
:1057E80002EB031302F804C08A785A70CA789A70D8
:1057F8004A685A608C689C60B1F80CC0A3F80CC069
:1058080091F80EC083F80EC0C97BD9730E4B9A422B
:1058180015D090F8AC30013380F8AC30D0F8A8300F
:105828002BB190F8AC1090F8AD20914206D390F8C7
:10583800AC2083F850200021FFF76CFF10BD052332
:1058480080F8AD30E5E770477FA6980008B5074BAC
:1058580001221A601971064BD3F8BC3023B10349F1
:10586800034AD2F8C000984708BD00BF7C12002048
:105878009812002008B513460A46C17A406801F01C
:10588800B8FA08BD00B583B0002280F8AC20042126
:1058980080F8AD10ADF80420F9238DF80430022209
:1058A8006944FFF7E7FF03B000BD30B587B0044691
:1058B800D0F8A8301A78002A34D100205A780AB1D2
:1058C80040F001009A780AB140F00400DA780AB191
:1058D80040F0080001A9002201924A608A60CA606B
:1058E8000A74FD228DF8042094F8AC208DF8052068
:1058F8008DF806009A88ADF807209A68CDF8092037
:10590800DA68CDF80D201B69CDF811301122204638
:10591800FFF7B0FF054601462046FFF7FBFE284685
:1059280007B030BD0220C9E770B504460D460068CF
:1059380003699847064629460F48FFF765FED0B920
:10594800304605E0606801F0D9F920680369984796
:10595800D4F8A0202AB12B68002BF3D0801B8342F7
:10596800F0D832B10023C4F8A0306FF00503C4F8B2
:10597800A430D4F8A40070BD981200202DE9F04797
:1059880088B007468A46904699462A21FFF7C9FEFD
:105998000646002401E03444A4B2444518D2CDF8A8
:1059A8000090002301932A238DF8093032460AEB30
:1059B80004010DF10A0005F0D0FB8DF80860D7F856
:1059C800C450002DE7D06946D7F8C800A847E2E7D9
:1059D80008B0BDE8F0872DE9F04F8BB081468846C6
:1059E800934601934FF0000A54460DE0D9F8F83178
:1059F8000133C9F8F8310BB0BDE8F08FD7F801A032
:105A0800CAF1000A2544ACB25C45F4D208EB04079D
:105A180018F8046031464846FFF783FE054600281B
:105A2800E4D0FB2EEAD0FA2E20D0EF2E22D0BB787D
:105A38009B0103F47C53FA781A4451460198FFF706
:105A480083FECDE902018DF811602A4639460DF131
:105A5800120005F082FB8DF81050D9F8C430002BE5
:105A6800D0D002A9D9F8C8009847CBE7D7F80130B9
:105A78009A44C7E7024639464846FFF7DAFDC1E7C8
:105A880008B5FFF7A8FF08BD08B5FFF7A4FF08BDD4
:105A980010B50446802903D0812906D0E1B110BD94
:105AA80019460C3005F043FBF9E75008812A00D964
:105AB800402000220DE013F8121002F10C0C04EB48
:105AC8004C0C8CF8051003EB420149788CF8061051
